	 "File Signatures". دي بتكون أول بايتات في الملف، وبتساعد السيرفر أو البرامج تتعرف على نوع الملف حتى لو امتداده مش صح.

هنا البدايات (Magic Numbers) لبعض أنواع الملفات الشهيرة:

1. JPG/JPEG:
Magic Number: FF D8 FF

التفاصيل:

أول 3 بايتات في الملف بتكون FF D8 FF.

غالبًا بتكون متبوعة بـ E0 أو E1 أو E2، إلخ.

مثال:
FF D8 FF E0 أو FF D8 FF E1

2. PNG:
Magic Number: 89 50 4E 47 0D 0A 1A 0A

التفاصيل:

أول 8 بايتات في الملف بتكون 89 50 4E 47 0D 0A 1A 0A.

50 4E 47 هي ASCII لـ PNG.

مثال:
89 50 4E 47 0D 0A 1A 0A

3. GIF:
Magic Number: 47 49 46 38

التفاصيل:

أول 4 بايتات في الملف بتكون 47 49 46 38.

47 49 46 38 هي ASCII لـ GIF8.

غالبًا بتكون متبوعة بـ 37 أو 39 (يعني GIF87a أو GIF89a).

مثال:
47 49 46 38 39 61 (لـ GIF89a)

4. TIFF:
Magic Number: 49 49 2A 00 أو 4D 4D 00 2A

التفاصيل:

49 49 2A 00 لـ TIFF بترتيب Little-endian.

4D 4D 00 2A لـ TIFF بترتيب Big-endian.

مثال:
49 49 2A 00 أو 4D 4D 00 2A

5. ICO:
Magic Number: 00 00 01 00

التفاصيل:

أول 4 بايتات في الملف بتكون 00 00 01 00.

ICO ملفات الأيقونات بتكون لها هيكل معين، وبتستخدم في Windows علشان تتعرف على الأيقونات.

مثال:
00 00 01 00

6. BMP:
Magic Number: 42 4D

التفاصيل:

أول 2 بايتات في الملف بتكون 42 4D.

42 4D هي ASCII لـ BM.

مثال:
42 4D

7. PDF:
Magic Number: 25 50 44 46

التفاصيل:

أول 4 بايتات في الملف بتكون 25 50 44 46.

25 50 44 46 هي ASCII لـ %PDF.

مثال:
25 50 44 46

8. ZIP:
Magic Number: 50 4B 03 04

التفاصيل:

أول 4 بايتات في الملف بتكون 50 4B 03 04.

50 4B هي ASCII لـ PK (نسبة إلى Phil Katz، مبتكر ZIP).

مثال:
50 4B 03 04

9. WEBP:
Magic Number: 52 49 46 46

التفاصيل:

أول 4 بايتات في الملف بتكون 52 49 46 46.

52 49 46 46 هي ASCII لـ RIFF.

مثال:
52 49 46 46

10. SVG:
Magic Number: <svg (نصي، مش بايتات)

التفاصيل:

SVG ملفات بتكون نصية (XML)، فبتلاقي بدايتها بتكون <svg.

مثال:
<svg width="100" height="100">

11. MP3:
Magic Number: FF FB أو 49 44 33

التفاصيل:

FF FB لـ MP3 بدون ID3 tags.

49 44 33 لـ MP3 مع ID3 tags (ID3 في ASCII).

مثال:
FF FB أو 49 44 33

12. MP4:
Magic Number: 00 00 00 18 66 74 79 70

التفاصيل:

أول 8 بايتات في الملف بتكون 00 00 00 18 66 74 79 70.

66 74 79 70 هي ASCII لـ ftyp.

مثال:
00 00 00 18 66 74 79 70

13. EXE/DLL:
Magic Number: 4D 5A

التفاصيل:

أول 2 بايتات في الملف بتكون 4D 5A.

4D 5A هي ASCII لـ MZ (نسبة إلى Mark Zbikowski، مطور في Microsoft).

مثال:
4D 5A

14. ELF (Linux Executable):
Magic Number: 7F 45 4C 46

التفاصيل:

أول 4 بايتات في الملف بتكون 7F 45 4C 46.

7F 45 4C 46 هي ASCII لـ ELF.

مثال:
7F 45 4C 46

15. ISO (Disk Image):
Magic Number: 43 44 30 30 31

التفاصيل:

أول 5 بايتات في الملف بتكون 43 44 30 30 31.

43 44 30 30 31 هي ASCII لـ CD001.

مثال:
43 44 30 30 31

16. RAR:
Magic Number: 52 61 72 21

التفاصيل:

أول 4 بايتات في الملف بتكون 52 61 72 21.

52 61 72 21 هي ASCII لـ Rar!.

مثال:
52 61 72 21

17. 7Z:
Magic Number: 37 7A BC AF 27 1C

التفاصيل:

أول 6 بايتات في الملف بتكون 37 7A BC AF 27 1C.

37 7A هي ASCII لـ 7z.

مثال:
37 7A BC AF 27 1C

18. TAR:
Magic Number: 75 73 74 61 72

التفاصيل:

أول 5 بايتات في الملف بتكون 75 73 74 61 72.

75 73 74 61 72 هي ASCII لـ ustar.

مثال:
75 73 74 61 72

19. GZIP:
Magic Number: 1F 8B

التفاصيل:

أول 2 بايتات في الملف بتكون 1F 8B.

مثال:
1F 8B

20. BZIP2:
Magic Number: 42 5A 68

التفاصيل:

أول 3 بايتات في الملف بتكون 42 5A 68.

42 5A 68 هي ASCII لـ BZh.

مثال:
42 5A 68

21. XML:
Magic Number: 3C 3F 78 6D 6C

التفاصيل:

أول 5 بايتات في الملف بتكون 3C 3F 78 6D 6C.

3C 3F 78 6D 6C هي ASCII لـ <?xml.

مثال:
3C 3F 78 6D 6C

22. JSON:
Magic Number: 7B أو 5B

التفاصيل:

أول بايت في الملف بيكون 7B (ASCII لـ {) أو 5B (ASCII لـ [).

مثال:
7B أو 5B

23. HTML:
Magic Number: 3C 21 44 4F 43 54 59 50 45

التفاصيل:

أول 9 بايتات في الملف بتكون 3C 21 44 4F 43 54 59 50 45.

3C 21 44 4F 43 54 59 50 45 هي ASCII لـ <!DOCTYPE.

مثال:
3C 21 44 4F 43 54 59 50 45

24. CSV:
Magic Number: لا يوجد Magic Number محدد، لكن بيكون نصي.

التفاصيل:

بيكون نصي، وبيحتوي على أعمدة مفصولة بفواصل (, أو ;).

مثال:
Name,Age,Location

25. SQLite:
Magic Number: 53 51 4C 69 74 65 20 66 6F 72 6D 61 74 20 33 00

التفاصيل:

أول 16 بايتات في الملف بتكون 53 51 4C 69 74 65 20 66 6F 72 6D 61 74 20 33 00.

53 51 4C 69 74 65 20 66 6F 72 6D 61 74 20 33 00 هي ASCII لـ SQLite format 3.

مثال:
53 51 4C 69 74 65 20 66 6F 72 6D 61 74 20 33 00

26. DMG (Apple Disk Image):
Magic Number: 78 01 73 0D 62 62 60

التفاصيل:

أول 7 بايتات في الملف بتكون 78 01 73 0D 62 62 60.

مثال:
78 01 73 0D 62 62 60

27. ODT (OpenDocument Text):
Magic Number: 50 4B 03 04

التفاصيل:

أول 4 بايتات في الملف بتكون 50 4B 03 04.

50 4B 03 04 هي ASCII لـ PK (نسبة إلى Phil Katz، مبتكر ZIP).

مثال:
50 4B 03 04

28. ODS (OpenDocument Spreadsheet):
Magic Number: 50 4B 03 04

التفاصيل:

أول 4 بايتات في الملف بتكون 50 4B 03 04.

50 4B 03 04 هي ASCII لـ PK (نسبة إلى Phil Katz، مبتكر ZIP).

مثال:
50 4B 03 04

29. ODP (OpenDocument Presentation):
Magic Number: 50 4B 03 04

التفاصيل:

أول 4 بايتات في الملف بتكون 50 4B 03 04.

50 4B 03 04 هي ASCII لـ PK (نسبة إلى Phil Katz، مبتكر ZIP).

مثال:
50 4B 03 04

30. ODG (OpenDocument Graphics):
Magic Number: 50 4B 03 04

التفاصيل:

أول 4 بايتات في الملف بتكون 50 4B 03 04.

50 4B 03 04 هي ASCII لـ PK (نسبة إلى Phil Katz، مبتكر ZIP).

مثال:
50 4B 03 04

31. ODF (OpenDocument Formula):
Magic Number: 50 4B 03 04

التفاصيل:

أول 4 بايتات في الملف بتكون 50 4B 03 04.

50 4B 03 04 هي ASCII لـ PK (نسبة إلى Phil Katz، مبتكر ZIP).

مثال:
50 4B 03 04

32. ODC (OpenDocument Chart):
Magic Number: 50 4B 03 04

التفاصيل:

أول 4 بايتات في الملف بتكون 50 4B 03 04.

50 4B 03 04 هي ASCII لـ PK (نسبة إلى Phil Katz، مبتكر ZIP).

مثال:
50 4B 03 04

33. ODB (OpenDocument Database):
Magic Number: 50 4B 03 04

التفاصيل:

أول 4 بايتات في الملف بتكون 50 4B 03 04.

50 4B 03 04 هي ASCII لـ PK (نسبة إلى Phil Katz، مبتكر ZIP).

مثال:
50 4B 03 04

34. ODM (OpenDocument Master Document):
Magic Number: 50 4B 03 04

التفاصيل:

أول 4 بايتات في الملف بتكون 50 4B 03 04.

50 4B 03 04 هي ASCII لـ PK (نسبة إلى Phil Katz، مبتكر ZIP).

مثال:
50 4B 03 04

35. ODT (OpenDocument Text Template):
Magic Number: 50 4B 03 04

التفاصيل:

أول 4 بايتات في الملف بتكون 50 4B 03 04.

50 4B 03 04 هي ASCII لـ PK (نسبة إلى Phil Katz، مبتكر ZIP).

مثال:
50 4B 03 04

36. ODS (OpenDocument Spreadsheet Template):
Magic Number: 50 4B 03 04

التفاصيل:

أول 4 بايتات في الملف بتكون 50 4B 03 04.

50 4B 03 04 هي ASCII لـ PK (نسبة إلى Phil Katz، مبتكر ZIP).

مثال:
50 4B 03 04

37. ODP (OpenDocument Presentation Template):
Magic Number: 50 4B 03 04

التفاصيل:

أول 4 بايتات في الملف بتكون 50 4B 03 04.

50 4B 03 04 هي ASCII لـ PK (نسبة إلى Phil Katz، مبتكر ZIP).

مثال:
50 4B 03 04

38. ODG (OpenDocument Graphics Template):
Magic Number: 50 4B 03 04

التفاصيل:

أول 4 بايتات في الملف بتكون 50 4B 03 04.

`50 4